:020000040800F2
:10000000B00F00204D010008E3240008072300087A
:10001000E12400088D0200085D5C0008000000007B
:10002000000000000000000000000000CD480008B3
:100030003F04000800000000E92A00086D4A00089B
:100040006701000867010008214C000867010008EB
:1000500067010008670100086701000867010008E0
:1000600067010008670100086701000867010008D0
:1000700067010008670100086701000885030008A0
:1000800067010008670100086701000867010008B0
:1000900067010008670100086701000867010008A0
:1000A0006701000867010008670100086701000890
:1000B0006701000867010008670100086701000880
:1000C0006701000867010008670100086701000870
:1000D00067010008795700086701000867010008F8
:1000E00067010008670100085D2E0008670100082D
:1000F0006701000867010008670100086701000840
:100100006701000867010008CD3F0008670100088B
:10011000670100086701000867010008670100081F
:10012000670100086701000867010008670100080F
:100130006701000867010008DFF80CD000F094F8B0
:10014000004800475F5C0008B00F00200648804769
:1001500006480047FEE7FEE7FEE7FEE7FEE7FEE7AC
:10016000FEE7FEE7FEE7FEE71D4C00083901000848
:100170002DE9F05F0546002092469B4688460646DC
:10018000814640241BE0284641464746224600F06F
:100190005AF853465A46C01A914110D31146184690
:1001A000224600F041F82D1A67EB01084F4622461F
:1001B0000120002100F038F817EB00094E41201E05
:1001C000A4F10104DFDC484631462A464346BDE837
:1001D000F09F40EA01039B0703D009E008C9121F02
:1001E00008C0042AFAD203E011F8013B00F8013BF1
:1001F000521EF9D27047D2B201E000F8012B491E1D
:10020000FBD270470022F6E710B513460A460446B3
:100210001946FFF7F0FF204610BD421C10F8011BE5
:100220000029FBD1801A7047202A04DB203A00FA0B
:1002300002F1002070479140C2F1200320FA03F33D
:10024000194390407047202A04DB203A21FA02F03B
:100250000021704721FA02F3D040C2F12002914000
:100260000843194670470000064C074D06E0E06859
:1002700040F0010394E8070098471034AC42F6D3ED
:10028000FFF75EFF2863000848630008FEE70000F0
:100290002DE9F04F85B0DFF8D8B04FF0000902200B
:1002A0004FF00208CDF81090D8470220D84702201E
:1002B000D8470220D84703202E4D6C462E4F4FF4CE
:1002C000805A039001202146CDF800A0CDE901001D
:1002D0002846B8474FF4005002F011F94FF480401F
:1002E00002F00DF94FF4806002F009F9234E284620
:1002F0004FF480510022B04728464FF400510022AD
:10030000B04728464FF480410022B04728464FF4BA
:1003100080610022B0470D20CDE901890490F020D2
:1003200000900120D8474FF090402146B847062062
:10033000CDE90189CDF800A004900120D8474FF005
:1003400090402146B84700204FF080714FF0804226
:1003500000F09EFE0A48016841F48041016000F00F
:1003600071F800F079F800F071F805B0BDE8F08F91
:100370005523000800040048C9080008490A00087D
:1003800090080058014800F037B900BF6805002008
:1003900010B51049836C104C01F1640223F0030383
:1003A00002650268A24238BF04F57E711944142325
:1003B000C1646FF00701A24251FA82F1B1FBF3F17F
:1003C00028BF0731012201F01F0102FA01F1416546
:1003D00010BD00BF1C0802400804024010B543686D
:1003E00007490124583003F07F0301F14002013B2B
:1003F00001EB830103F0030304FA03F30EC010BD05
:1004000000090240F0B500F1500670CE656016B1EB
:10041000D0E91745656004688568D0E91160012757
:1004200000F01C00102D07FA00F0706008466360B1
:1004300008BF1046A06008BF0A46E260F0BD7047E2
:10044000FEE70000064802F09CB900BF04480168BE
:1004500041F0040101607047014802F058B800BF44
:10046000042004E040B3B0B5816A022926D10168B6
:1004700000F144041CCC0D6803F01C0325F00E05AC
:100480000D60256825F4807525600C6824F0010452
:100490000C60012101FA03F35360D0E91423536087
:1004A000826D32B1136823F480731360D0E917238F
:1004B00053608162002104E0012106E0042101640F
:1004C000012100224262BDE8B04008467047B0B545
:1004D000816A022929D10168D0E91132C46C0D6802
:1004E00025F00E050D600D6825F001050D602168F1
:1004F00021F48071216002F01C01012202FA01F155
:100500005960D0E914134B60816D31B10B6823F44D
:1005100080730B60D0E917134B6000214162826247
:10052000C26B2AB19047002102E00421016401213D
:100530000846B0BD60B10068CB06026805D5C902A7
:1005400054BF22F4801242F48012026000207047EF
:1005500001207047F8B54FF0010C002844D0036823
:10056000244A7A4F0446196802F5806521F001019A
:1005700019601F490E1DB3423CBF0025C4F202059D
:1005800038BF07F580671F441420B7FBF0F08700E1
:10059000C4E911570025B3421D6038BF111D1C224C
:1005A00002EA80000CFA00F008602046FFF7F0FE37
:1005B000606804F14C030ECB013803280D605360D2
:1005C00007D82046FFF70AFF04F1580207CA056062
:1005D0004A602564C4E916552566C4E90C55C4E98A
:1005E0000E556562A56200E001252846F8BD00BFF2
:1005F0000404024000000240F0B5D0E91123016874
:10060000042403F01C0316680D689C40344201D09A
:100610006F0719D402249C40344201D0AF071DD487
:1006200026FA03F4240731D52C072FD50C6824F0C3
:100630000E040C60012101FA03F3536000220164EF
:1006400042628162816B1DE00B689B0603D40B68DC
:1006500023F004030B605460416B13E00A689206B8
:1006600005D40A6822F00A020A600122826200228E
:100670004262074A02F17C03994288BF02F5806218
:100680001460016B11B1BDE8F0400847F0BD00BF38
:100690000400024000284AD0F8B5044602202A4946
:1006A000A06204F10806206801F1080268CE9042B9
:1006B000264A38BFA1F5806138BF02F58062142751
:1006C0000244B2FBF7F29200C4E9111247F6F0724D
:1006D00001689143016045EA0301626931431143B6
:1006E000A2691143E2691143226A1143026811436E
:1006F00001602046FFF74CFEA06804F14C03B0F502
:10070000804F06BF00206060606800F07F050ECB60
:10071000013803280D6053600BD82046FFF75EFEBA
:1007200004F15802002307CA03604A6005E0012073
:1007300070470020C4E916002066002001212064D3
:100740006062A162F8BD00BF00040240F8FBFDBF7B
:10075000B0B50446406A012804BF0220B0BD0120A4
:100760006062A06A012812D10220A06200202064E9
:100770002068056825F0010505602046FFF742FE68
:100780002068626B016842B141F00E010BE000206D
:100790006062802020640120B0BD21F0040101606E
:1007A000016841F00A010160E16C0A68D20303D5D7
:1007B0000A6842F480720A60A16D19B10A6842F4B5
:1007C00080720A60016841F0010101600020B0BD43
:1007D00081B00090009801B004F050BA2DE9FC4FB0
:1007E000914A4FF0000890424FF0070208BF0222E2
:1007F000002400230092019131FA03F608BFBDE8FE
:10080000FC8F012202FA03F616EA010E57D0884A3D
:100810004FEA930CB0F1904F52F82C9007D0854AD4
:10082000DDF800A0904208BF4FF0010A01E04FF050
:10083000000A08F00C0B0721424601FA0BF80AFAED
:100840000BF509EA0807AF421BD17849D1F880506F
:1008500025EA0E05C1F88050D1F8845025EA0E052E
:10086000C1F884500D6825EA0E050D604D6825EA33
:100870000E054D606E4951F82C5025EA080541F8E7
:100880002C5003210768904601FA04F50F212F43ED
:10089000076002F01C0701FA07F76FF0030101EA95
:1008A00053020244116AB94311628168A94381600D
:1008B0004168B1434160C168A943C160019908F131
:1008C00004080234013397E72DE9F84F564A4FF0F8
:1008D00000084FF0010B4FF0000E90424FF007025E
:1008E00008BF022200920027514A92460A6832FA53
:1008F00007F308BFBDE8F88F0BFA07F312EA030904
:1009000000F08B804E68122E4DD80BFA06F515F0CC
:10091000061F48D00322846802FA0EF5CA68AC4369
:100920006FEA050C02FA0EF2224382603209446833
:10093000BA4024EA03031A437B004260C2688C6811
:1009400002EA0C029C402243C26046F01002122AC6
:1009500011D16FF0030508F01C020F2405EA5705BA
:10096000944005442E6A26EA04040E6906FA02F24F
:1009700022432A624E68026806F0030404FA03F375
:1009800002EA0C021A430260F20046D5BB08524646
:100990005AF82360B0F1904F0CD0264A009D904247
:1009A00008BF012507E0032202FA0EF36FEA030CE9
:1009B0007346C3E7002508F00C020724944005FAAB
:1009C00002F226EA0404194E224354464AF8232030
:1009D000D6F880204C6842EA0903E50358BF22EAB2
:1009E0000903C6F88030A503D6F8842042EA09033B
:1009F00058BF22EA0903C6F88430E502326842EAA9
:100A0000090358BF22EA09033360A402726842EA6C
:100A1000090358BF22EA0903736008F104080EF1C4
:100A2000020E013762E700BF0008004800080058C6
:100A30000800014000040048426902EA01039143B2
:100A400041EA0341816170471823002A08BF282327
:100A5000C150704704F040B90348044940680A682F
:100A600010440860704700BF04000020AC0700205D
:100A700080B5032000F058F800F06CFA3F49086098
:100A80000F2000F007F808B1012080BD00F004F845
:100A9000002080BD002070477047000000280CD463
:100AA00000F01F010122400902FA01F1034A42F855
:100AB0002010BFF34F8FBFF36F8F704780E100E0CE
:100AC000002808D400F01F010122400902FA01F1B8
:100AD000014A42F82010704700E100E0F0B5184BE1
:100AE0004FF0FF361C68C4F30224E51E84F00704AF
:100AF00038BF002506FA05F7BA43042C28BF0424A2
:100B000006FA04F4A14300F00F04A940043C114389
:100B10002344044A09010C33B0F1FF3FC8BF8318D6
:100B20001970F0BD00E400E005494FF6FF030A68C4
:100B30001A4060F30A22034810430860704700BF60
:100B40000CED00E00000FA0520483222016821F493
:100B500080410160094909685143094AB1FBF2F13A
:100B60004A1E43698A4203D213F400711146F7D139
:100B700040690321800501EAE070704718000020F9
:100B800040420F00114801F072BE00BF0F4902231E
:100B900001280A6863F302020A601D490A6842F0EC
:100BA00004020A600FBF30BF40BF20BF20BF01F06A
:100BB000B3BC00BF0548006800F4C060704700BFC8
:100BC0000248016841F480710160704700040058D8
:100BD00010B50C460D49096801F4007118B139B916
:100BE000FFF7D0FF04E019B1FFF7AEFF00B110BD71
:100BF0000748012C016821F00401016004BF30BFE7
:100C000010BD40BF20BF20BF10BD00BF140400585E
:100C100010ED00E0F8B504468078544EC00742D08D
:100C2000FFF7CEFFFFF716FF0546D6F8F403C00521
:100C300006D4FFF70FFF401B0228F6D9032533E047
:100C4000606BD6F8841001F44071814224D0D6F84C
:100C50008410D6F8842042F48032C6F88420D6F876
:100C6000842022F48032C6F8842021F4407289075F
:100C70000146C6F884200FD5FFF7ECFE054641F289
:100C80008837D6F88400800705D4FFF7E3FE401BC1
:100C9000B842F6D9D2E7616BD6F8840020F44070F0
:100CA0000843C6F8840000252068C10702D06168A7
:100CB00001F0B3FD810702D5A16801F0AEFD810608
:100CC00005D52169F26F22F440621143F167810575
:100CD00002D5216A01F039FC410502D5616A01F0B3
:100CE00034FC010502D5A16A01F02FFC410603D5B1
:100CF000606901F04BFB2068010603D5A06901F093
:100D000045FB2068C10503D5E06901F03FFB206881
:100D1000C1060CD5E168F26F22F440720A43B1F5C6
:100D2000807FF26703D1316841F080713160010446
:100D30000AD5216BF26F22F040420A43F26719B9DB
:100D4000316841F08071316040040CD5E06AF16F88
:100D500021F040510143B0F1005FF16703D13068E9
:100D600040F4803030602846F8BD00BF0C000058C9
:100D70002DE9F843002800F0B780734F05460C4674
:100D8000386800F00700884211D2386820F0070068
:100D9000204301F071FD0646386800F00700A042CC
:100DA00005D0FFF757FE801B0228F5D96EE02868B2
:100DB000B946CA4F810711D5A868396821F0F001FA
:100DC000084301F059FD06463868C00305D4FFF713
:100DD00041FE801B0228F7D958E02868810615D506
:100DE0006869D7F8001121F0F0010843C7F8000145
:100DF000FFF730FE0646D7F80001800305D4FFF761
:100E000029FE801B0228F6D940E02868410616D545
:100E1000A869D7F8001121F00F0141EA1010C7F8B6
:100E20000001FFF717FE0646D7F80001C00305D4FE
:100E3000FFF710FE801B0228F6D927E0286841073B
:100E400011D5E868396821F4E061084301F014FD28
:100E500006463868800305D4FFF7FCFD801B022896
:100E6000F7D913E02868010714D52869396821F4F7
:100E7000605141EAC00001F0FFFC064638684003BB
:100E800007D4FFF7E7FD801B0228F7D90320BDE850
:100E9000F8832868C0071CD1D9F8000000F00700CB
:100EA000A04224D9D9F8000020F007002043C9F857
:100EB0000000FFF7CFFD05464846D9F8000000F0D6
:100EC0000700A04213D0FFF7C5FD01F0A2FCF3D943
:100ED00030E068684FF0B04198B103282CD0022868
:100EE0002ED1096889030FD40120BDE8F88300F0F2
:100EF00031F81649086016480068BDE8F843FFF766
:100F0000C9BD09688907EFD5396821F00301084395
:100F100001F0B2FC064641F288386868396801F091
:100F20000C01B1EB800FB7D0FFF794FD811B0320BC
:100F30004145F2D9BDE8F88309688901D4D5E3E7D2
:100F400009684905D0D5DFE70040005818000020A7
:100F50000400002080B500F027F860493C220968B1
:100F600002EA9101024A5158B0FBF1F080BD00BF86
:100F70005060000880B5FFF7EDFF5849094A09683D
:100F8000C1F3022152F82110C84080BD80B5FFF79F
:100F9000E1FF5249034A0968C1F3C22152F8211006
:100FA000C84080BD9060000810B5364951F8042C47
:100FB000086812F00C0205D00C2A15D100F00300CD
:100FC000012811D14FF0B0400368006800F008001C
:100FD0001B0705D4B8B9D1F88800C0F303201CE082
:100FE000B0B9D1F8880011E02748042A1ED0082A99
:100FF0001BD14FF0B0421268D2025CBF44F6000031
:10100000C0F2E81012E04FF0B0400068002004E0A9
:101010004FF0B0400068C0F303101C4B002A53F897
:101020002030184618BF002001E00020002351F8AE
:10103000042C02F00C020C2A22D1086800F00302F2
:101040001148022A0CD0032A09D14FF0B04212688D
:10105000D2025CBF44F60000C0F2E81000E018467F
:101060000A680B6809680124C2F3062204EB517177
:101070005043C3F302120132B0FBF2F0B0FBF1F0C7
:1010800010BD00BF0C0000580024F4006C61000883
:1010900070B586B0114E0D4669461446706C40F02E
:1010A00001007064706C00F0010005900320039053
:1010B000022001904FF48070009000200490029074
:1010C00005984FF09040FFF7FFFB316844EA0500B8
:1010D00021F0FE410843306006B070BD08000058A2
:1010E0002DE9F047002800F05981DE4C8246606807
:1010F00000F00C08A06800F003099AF800008006D0
:1011000027D49AF80000C00770D0B8F1080F63D058
:10111000B8F10C0F08BFB9F1030F5DD04FF0B0412B
:10112000DAE901020B6823F480131A43B0F5803F1B
:101130000A6009D0B0F5041F40F096814FF0B0402E
:10114000026842F400120260086840F480300860CF
:1011500097E1B8F1000F1DD0B8F10C0F08BFB9F13D
:10116000010F17D04FF0B0463068DAF82010002990
:1011700000F0348140F0010001F038FA0546306893
:10118000800700F13A81FFF765FC01F042FBF6D9D8
:10119000BDE8F0874FF0B0410868800704D5DAF861
:1011A0002000002800F0FA80DAF828000968090712
:1011B00059BFD4F8901009094FF0B041096801F007
:1011C000F001884240F2D48001F0F6FD002840F0A2
:1011D000E58001F0A6F9E4E04FF0B040006880033C
:1011E00004D5DAF80400002800F0D8809AF800004E
:1011F000800730D5B8F1040F1BD0B8F10C0F08BF31
:10120000B9F1020F15D04FF0B0463068DAF810107F
:10121000002900F0468140F4807001F0E7F90546AE
:10122000306840050FD4FFF715FC01F0F2FAF7D94A
:10123000AEE74FF0B0400068400504D5DAF8100082
:10124000002800F0AB80DAF81400216821F0FE419C
:1012500041EA006020609AF8000000072CD49AF858
:10126000000040074FD4DAF82C0010B3B8F10C0F8F
:1012700040F0C680012800F09180DAF83010A068B4
:1012800000F003028A4240F08980DAF8341000F05E
:1012900070028A4240F08280DAF8381000F4FE4290
:1012A000B2EB012F7AD1DAF8441000F060408842A6
:1012B00074D10020BDE8F087D4F89010DAF8180057
:1012C00000287AD0DAF81C0001F01002904200F0F9
:1012D0008D8101F00302022A60D0C90700F07F81EE
:1012E000D4F8900020F0010001F0DCFA0546D4F8B3
:1012F0009000800740F17181FFF7ACFB411B032098
:101300001129F4D944E7D4F8FC03C0050ED4FFF743
:1013100057FCFFF79FFB0546D4F8FC03C00505D436
:10132000FFF798FB01F075FAF6D931E7DAF80C000F
:10133000002800F0C580852801D0052805D1D4F803
:101340008C0040F00400C4F88C00FFF783FB01F030
:10135000C1F940F00100C4F88C00D4F88C0080077B
:1013600064D4FFF777FB411B0320B142F5D90FE7A7
:101370004FF0B0410A6842F008020A600A6822F0A1
:10138000F00202430A60DAF82410226822F47F4255
:1013900042EA0121216001F00FFD10B10120BDE8FA
:1013A000F087FFF7D7FD9B4908609B480068FFF76F
:1013B00071FB00287FF4ECAEA3E621F0010001F000
:1013C00071FA0546D4F8900080077FF548AFFFF723
:1013D00041FB411B03201129F4D9D9E620F001007B
:1013E00001F004F90546306880077FF58AAEFFF703
:1013F00031FB01F00EFAF6D9CAE601F092F880E668
:101400004FF0B0460228316821F08071316071D10F
:10141000FFF720FB05463068800140F18180FFF72F
:1014200019FB411B03200A29F5D9B1E6DAF80C00B3
:1014300040F00400852840F09980FFF70BFB01F095
:1014400049F940F08000C4F88C00D4F88C00000505
:101450003FF509AFFFF7FEFA411B0320B142F4D973
:1014600096E600BF040000584FF0B04600283168EF
:1014700021F480313160316821F40011316000F0D5
:101480009E80FFF7E7FA05464FF0B04630688003CC
:101490003FF5ACAEFFF7DEFA411B03206429F5D916
:1014A00076E620F4807001F0A1F80546306840052A
:1014B0007FF5D1AEFFF7CEFA01F0ABF9F6D967E6CA
:1014C000FFF7C8FA0646D4F88C0041F2883920F0BC
:1014D0008000C4F88C00D4F88C0027460405FFF780
:1014E000B9FA0546002C55D5A91B03203C464945B1
:1014F000F1D94DE6A068494920F00300A060A0683A
:101500000840A060FFF7A6FA0446306880017FF526
:10151000D0AEFFF79FFA011B03200A29F5D937E661
:10152000A0683F490AF130070840EECF0843104356
:1015300040EA032028434FF0B04530433843A060D1
:10154000286840F080702860A06840F08050A0605B
:10155000FFF780FA0446286880013FF5AAAEFFF73E
:1015600079FA011B03200A29F5D911E6FFF772FA6F
:1015700001F0B0F820F08000C4F88C00D4F88C00A2
:1015800000057FF570AEFFF765FA411B0320B142FD
:10159000F4D9FDE5D7F88C003C4641F2883620F0BE
:1015A0000100C7F88C00D4F88C0080077FF55BAE93
:1015B000FFF750FA411B0320B142F4D9E8E5FFF7E9
:1015C00049FA0546306880037FF510AEFFF742FA0E
:1015D000411B03206429F5D9DAE5DAF81C00D4F8B8
:1015E000901021F010010843C4F89000D4F8900046
:1015F00040F0010001F056F90546D4F8900080074C
:101600003FF52DAEFFF726FA401B1128F5D9032030
:10161000BDE8F0871800002004000020FFFFFEEE68
:101620008C80C11170470000034850F821007047BA
:10163000014840F82120704700B10040C26A0221F1
:10164000012A0BD00163B049734601F006F89E46AB
:1016500042F02002734600F088FF9E46084670471D
:1016600080B503F0E1FA0130BDE8804003F0E8BA4C
:1016700010B504461F480168490604D54021816021
:101680002046FFF7EDFF0120206310BDC26A022152
:10169000012A13D001639C49734600F0DEFF9E4689
:1016A00042F080020A609A4A136843F48023136070
:1016B000FF22CA6000210122C1620263084670470E
:1016C00004F004BA70B50B4D04462868616B01EA5A
:1016D0000006F00704D00120A8602046FFF7F0FFC5
:1016E000B00704D50220A8602046FFF79BFF012029
:1016F000206370BD5428004010B5C36A0222012B3C
:1017000028D00263804ACA23D3605323D360342392
:10171000B1F5807F08BF2C239C58B1F5807F24F061
:1017200000449C506FF4085308BF6FF4885314684A
:1017300023401360FF23D36000226FF00203C262D4
:10174000B1F5807F08BF6FF00103416B1940416321
:1017500001210163104610BD70B578B30446006BDB
:1017600020B90020E062204600F03CF80220754DD0
:101770002063CA20A8615320A861204601F086FB9F
:10178000C8B9E8681649261D0840E8604ECEA06931
:1017900031430843E9680843E86043EA024068606F
:1017A000D4E909012A6822F4F8521043084328605A
:1017B00000F050FF20B1FF21A96170BD012070BD74
:1017C0006069D4E90712EB6823F060431A431143C0
:1017D0000843E860FF20A86101202063002070BD5D
:1017E000BFFF8FFB10B590B0044601A83021043034
:1017F000FEF708FD20681749884229D14FF4807010
:101800000E904FF48030019001A8FFF703FA08B161
:10181000FEF716FE10480022816B41F400418163FF
:10182000016841F4806101600021006800F480607B
:101830000F900F980220FFF751F90220FFF740F9AF
:101840002A2000210022FFF749F92A20FFF738F962
:1018500010B010BD00280040580000582DE9F04796
:1018600000F07DFE4ED020630120274F01F030F8BC
:1018700001D100201CE0386800F040001AB188B99E
:101880000021E97010E008B90020E8702878DFF83E
:101890007CA0D04780466878D04700F0E4FE00F096
:1018A000EEFF03E0E878810500F0A3FE01F042F8C6
:1018B00000F0BAFF0ED101F028F819BFB862A8698C
:1018C000D5E906010843F86268680121B8654FF45C
:1018D00088500DE000F0EAFF19BF3863A869D5E928
:1018E00006010843786368680221F8654FF40850E0
:1018F0003A68104338600648026842F400320260D9
:1019000000F0EEFEBDE8F08718280040692E0008C0
:1019100080080058B0B50B4D286860F0A000286022
:10192000FFF798F804462868800644BF0020B0BD41
:10193000FFF790F8001BB0F57A7F84BF0320B0BD9D
:10194000F1E700BF0C280040014800F0E0BD00BFF7
:1019500010E000E0012904D041B9CC488168802022
:101960000847CA4881684FF480700847704700BF35
:10197000C6488168402008472DE9F04100F0CDFFBE
:1019800002D1A068012802D10220BDE8F08100F058
:101990003CFEED490868884620F400400860F9B232
:1019A00000F08CFF20460021002702F0CBFAAF4266
:1019B00004D200F095FF01370136F8E700F03DFF53
:1019C00000F0DBFD18BF0120BDE8F0812DE9F041FA
:1019D00000F0A3FF02D1A068012802D10220BDE8D7
:1019E000F081012520461E4617468846A56002F074
:1019F000D5FA48F010005FFA88F1942818BF002546
:101A00002571D14D286820F40040286000F056FF71
:101A10002EB117F8011B00F051FF013EF8E72868CE
:101A2000B8F1840F40F40040286002D0204602F054
:101A3000D1FA00F0A2FD18BF0120BDE8F08100BF7F
:101A40009248816820200847904881681020084704
:101A50007CB5044600200DF1060212210223ADF8E8
:101A600006002046FFF788FF9DF807609DF80650A6
:101A7000F00702D0204600F005F9B00702D5204655
:101A800000F0F2F8700702D5204600F091F8300718
:101A900002D5204600F0F2F8F00602D52046FFF706
:101AA000D3FFB00602D52046FFF7CAFF700602D565
:101AB0002046FFF75DFF300604D505F00101204602
:101AC000FFF748FFA80702D5204600F0D1F80DF136
:101AD0000602204602210223FFF778FF7CBD0000AA
:101AE000BCB510B30446C06820B90020A0602046F1
:101AF00000F046F802201E4A6423E0601D48815829
:101B000021F4004181501C490968C1EBC101C1F3B6
:101B10004C4159430191019949B1019B013B01930A
:101B200083585B04F7D4002503E001251DE001255F
:101B30002561D0F8882042F40042C0F888200F4A7E
:101B4000136843F480531360026842F40062026039
:101B50004FF40062026131B1206802F0B5F9002053
:101B60002061012020710120E0602846BCBD00BF3B
:101B70008CFCFFFF08040058180000209008005853
:101B8000E0B50A480022016841F00101016000212E
:101B9000006800F00100019001983220FEF79EFFDE
:101BA0003220BDE88C40FEF78BBF00BF64000058B8
:101BB00036488168042008472DE9F84300F0ADFE5F
:101BC00002D1A068012802D10220BDE8F88300F00C
:101BD0001CFD5D49DFF8748100F0E0FD1E21C04767
:101BE00020463946C047204600210027C047AF4263
:101BF00004D200F075FE01370136F8E700F07AFDF7
:101C000000F0BBFC18BF0120BDE8F8832DE9F843C4
:101C100000F083FE02D1A068012802D10220BDE8B5
:101C2000F88300F0F2FC4849DFF8208100F0B6FDAF
:101C30001D21C047390A2046C047F9B22046C04797
:101C4000204600210027C047AF4204D200F048FEE2
:101C500001370136F8E700F04DFD00F08EFC18BFAB
:101C60000120BDE8F88300BF0848816802200847CA
:101C7000064881684FF40070084700BF0348816838
:101C80000820084701488168012008476C000020AF
:101C90002DE9F04100F041FE02D1A068012802D1F7
:101CA0000220BDE8F08100F0B0FC274908688846B2
:101CB00020F40040086020460E2102F043F920463F
:101CC000394602F03FF92DB116F8011B00F0F6FD80
:101CD000013DF8E700F0B1FD00F04FFC18BF012016
:101CE000BDE8F0812DE9F84300F017FE1CBF02208B
:101CF000BDE8F8830F46A1680220012921D0E060E9
:101D000001201D461646A060204602F047F90E4904
:101D1000DFF8388000F042FD0D21C047390A204627
:101D2000C047F9B22046C0472DB116F8011B00F09C
:101D3000C5FD013DF8E700F0DDFC00F01EFC18BF1A
:101D40000120BDE8F88300BF90040058453F00081B
:101D5000014800F0BABC00BF10E000E010B500F090
:101D600034FD04BF022010BD2420C4F88400206884
:101D70000168026822F0010241F000510260012274
:101D8000C4F880204FF0005262660160204603F0E4
:101D90003DF900202021C4F88000C4F8841010BD53
:101DA0000146D0F88000012804BF022070470020BF
:101DB000C1F8800009680A6842F002020A607047B0
:101DC00070477047B0B500F000FD04BF0220B0BD01
:101DD00000F0E5FB22F0606200F03EFD00F026BC62
:101DE000B0B500F0F2FC04BF0220B0BD00F0D7FB9C
:101DF00022F0604200F030FD00F018BCBCB500F0ED
:101E0000E4FC04BF0220BCBD2420C4F88400206888
:101E1000036823F0010303600123C4F88030836862
:101E200023F440130B43836059B9436891B223F004
:101E3000100319434160C2F30741426861F31F6216
:101E40004260016841F001010160FEF703FE0346B4
:101E50006FF07E404FF48001002200250090204664
:101E600003F04AFC08B1032003E02020C4F88400FA
:101E70000020C4F88050BCBD704770477047000018
:101E800070B50168044640F60F05CA6908688B689A
:101E90002A4272D08B4D00EA05068B4D1D40761903
:101EA00075D0D60709D0C60507D501260E62D4F82D
:101EB0008C6046F00106C4F88C60960709D5DE07F1
:101EC00007D002260E62D4F88C6046F00406C4F8EF
:101ED0008C60560709D5DE0707D004260E62D4F8B9
:101EE0008C6046F00206C4F88C6016070BD500F033
:101EF0002006354307D008250D62D4F88C5045F0F4
:101F00000805C4F88C5015050AD5450108D54FF4CD
:101F100000650D62D4F88C5045F02005C4F88C5053
:101F2000D4F88C50002D70D092060AD500F0200015
:101F300003F08052801804D0226F12B120469047DF
:101F40002168D4F88C00896800F0280001F0400175
:101F5000401854D0204603F03FF9206881684906B4
:101F600048D500F085FB45D05849C163FEF7AFFA6C
:101F700000284AD0E06FC16B1FE0950607D500F03E
:101F8000200503F08056AD1901D0216F13E0E56EF6
:101F9000012D03D1D50601D5C50637D4D50201D50B
:101FA0005D021FD415060BD500F0800503F4000375
:101FB0005B1905D0616F41B32046BDE8704008470A
:101FC000530601D5430644D4110201D541004ED435
:101FD000D1011AD5B0F1FF3F17DC2046BDE87040B3
:101FE000FFF7EFBE4FF4801008622046BDE8704056
:101FF000FFF743BF2046BDE87040FFF73FBF2046D4
:10200000FFF73CFF0020C4F88C0070BD1020086270
:102010008868400630D4B4F85E00B4F85C20B4F8A8
:102020005E30002BF1D0101A0204EED00A68284B63
:1020300022F490720A608A681A408A602022C4F8EA
:1020400088200022E26622670A6822F010020A60F5
:1020500032E0086820F0400008600020606720201F
:10206000C4F884002046BDE8704000F045B9204621
:10207000BDE87040FFF700BFE06F03685D68AEB277
:10208000002EC2D0B4F85C209642BED2A4F85E50B6
:102090001B689B060DD400F027FCC4F888200022A2
:1020A000E2660A6822F010020A60FEF7DBF9B4F873
:1020B0005C20B4F85E00101A81B22046BDE8704082
:1020C000FFF77EBE2001000401000010455100080A
:1020D000FEFFFFEF10B548B10446D0F8840008B900
:1020E00000F0B4FB00F050FA012801D1012010BD2E
:1020F000A06A08B100F08AFB00F077FB21F02A010A
:10210000816000F00EFCBDE8104002F0F5BF000059
:1021100010B504460068F149884218BF10BD09484F
:10212000016821F4003101604FF090400C21FEF76E
:1021300055FBA06FFEF70EFA2520BDE81040FEF714
:10214000ADBC00BF5800005870B594B004460EA84E
:102150001421FEF757F8684634210430FEF752F890
:102160002068DE4988424FD1284802250095029018
:102170006846FEF74FFD08B1FEF762F98248002677
:10218000C16841F40031C160C16801F400311391AC
:102190001399016841F001010160006800F001003D
:1021A00013900720CDE90F561290032011900C20B8
:1021B0000E9013980EA94FF09040FEF785FB14483F
:1021C000144D802110221423C0E90053C0E90226D7
:1021D000C0E90416C0E906660662FEF75BFA08B1BC
:1021E000FEF72EF90A4D10212846FEF7A3F908B193
:1021F000FEF726F9252002210022EC62A567FEF7F2
:102200006DFC2520FEF75CFC14B070BD04000C00D2
:10221000680500205800024010B5D0F88830202B07
:1022200005D131B12AB1D0F88030012B03D102247D
:1022300008E0012406E000240123C466C0F88030D1
:1022400003F0F6F9204610BD10B50446084843686F
:1022500033B1D4F88C0018B9054801210022984701
:10226000034920460122BDE81040FFF7D5BF00BF5B
:1022700028000020F8B50546D0F88400202806D1B3
:1022800031B3134622B3D5F88000012801D10224CE
:102290001FE000240120A5F85630C5F88C40C5F891
:1022A00080002120A5F854302965C5F88400A86F66
:1022B00088B10E4A0E4E0F4FC0E90E242A68C0E9BD
:1022C0000C762832FEF744FA28B1102000F030FADC
:1022D00001242046F8BD286840210162C5F88040ED
:1022E000816841F080018160F3E700BF555100082B
:1022F000D3510008AB51000801480168002008478D
:10230000640500207047FEE781B005490A68024372
:102310000A60096808400090009801B0704700BF4B
:102320004800005881B018490A6802430A600968E9
:1023300008400090009801B0704700BF81B012497A
:102340000A6802430A60096808400090009801B0DA
:10235000704700BF81B00C490A6802430A600968EF
:1023600008400090009801B0704700BF81B0064857
:10237000016841F004010160006800F00400009071
:10238000009801B0704700BF4C000058064A6FF437
:102390007F2161EA101100F47F401368194041EA7F
:1023A00000101060704700BF8800005880B50420FE
:1023B000FFF7AAFF0120FFF7A7FF0F20022100224D
:1023C000FEF78CFB0F20BDE88040FEF779BB0000D4
:1023D00080B58CB001A82821FDF714FF1748002212
:1023E0004FF480714FF08043C0E908211F21C0E9FC
:1023F0000422C0E90623816011490160FFF7ACF9AE
:1024000008B1FEF71DF80D48FFF740F908B1FEF7D7
:1024100017F84FF4807001220B904FF00050079096
:102420000020069002900890044801A9FFF716FAD0
:1024300008B1FEF705F80CB080BD00BFCC05002048
:102440000028004080B5054808210160FFF748FBDF
:1024500018B1BDE88040FDF7F3BF80BD080600203D
:1024600080B502F03BFBBDE8804002F06FBA4FF050
:10247000FF3003F06FBA000010B5174C00210C209C
:10248000164B4FF4E132C4E90410C4E9021104F11F
:1024900018001421C4E90032FDF7B4FE2046FFF70E
:1024A00019FE08B1FDF7CCFF0B480021FFF798FC9F
:1024B00008B1FDF7C5FF08480021FFF783FC08B10C
:1024C000FDF7BEFF0448FFF749FC18B1BDE8104016
:1024D000FDF7B6BF10BD00BF1C0600200044004041
:1024E000FEE7704701200021012203F04BB9820270
:1024F000810D002310464FF47A72FDF739BE214654
:1025000000902846384750F8242028463047016874
:1025100041F0020101607047086820F00400086083
:1025200070474FF0B040016841F008010160DAE9FE
:102530000912036823F0F0031A430260206820F4B4
:102540007F4040EA0120206070474FF6FF72F36F32
:1025500062EA01021A4042EA0141F16770470D4602
:10256000C16A04460220012970470A60FF22CA603E
:1025700000210122C1620263704700200121A06096
:102580002069E160002870472420C4F88400206896
:10259000016821F001010160204602F059BF2420AA
:1025A000C4F8840020680568026822F00102026015
:1025B0000122C4F88020826870474FF6FF704FF602
:1025C000FF710022002301F0B7BE0123FFF7FEB91F
:1025D0004DF808ED02F0B6FC6FF002005DF808EB74
:1025E000704720464FF48071FFF786B83060FEF7E1
:1025F00031BA6B782A78AE7895F824001B0243EA4A
:102600000242324442EA0106704701201D46164646
:102610000F46A060204601F0C1BC016821F0100106
:1026200001602046B4F85C10FFF7CABB2068202187
:1026300005600020C4F88000C4F88410B0BD0022FA
:10264000002301F079BE8DF807000323CA60010A58
:10265000000C7047204600F041BCCA22CA605322D9
:10266000CA600A687047000240EA0846A8785047E6
:10267000816821F040018160E06F0028704721F4FB
:10268000D0710160816821F0010181602020C4F8CF
:102690008400704701220262D4F88C2042F00102CB
:1026A000C4F88C20704704210162D4F88C0040F0FB
:1026B0000200C4F88C00704702220262D4F88C2019
:1026C00042F00402C4F88C207047016821F0020136
:1026D000016070470546D4F88C0041F28836704797
:1026E000FF20F8600020626BE0621143616301210A
:1026F00021637047D9F8000040F40040C9F8000099
:10270000204601F067BC20684A46016821F48071C8
:102710000160816801EA090181602021C4F8881004
:10272000C4F870A0E16E01297047002001F0E2BFFB
:10273000C5F88C000020C5F880002020C5F8840072
:1027400070472167016841F020010160BDE8F88F02
:1027500000222B460090204602F0CEBF016882681E
:10276000B4F86050D4F88830222B7047B4F85E007B
:10277000002870472020C4F88400C4F88800002096
:102780007047016841F0010101607047096801F07C
:102790000F0152F82110B0FBF1F07047086889462C
:1027A00020F40040086020467047016821F49071D1
:1027B0000160816821F0010181602021C4F8881046
:1027C00000212167E16E012970470446D0F880009E
:1027D00001287047214600F12005284603F0BCB9C6
:1027E000816941F00801816110BD2068416821F4D0
:1027F00090414160816870470870B4F85E0001380C
:10280000A4F85E0070472046FFF71EBD204602F088
:102810001FBC411B032002297047F26F22EA1142BC
:1028200089B21143F1677047CA21F9605321F960F9
:102830003968AA6AB2F5807F7047D8F8000040F482
:102840000040C8F80000204601F0C4BB0020C4F8D6
:1028500080002046FFF778BC11438160204602F0DB
:10286000D5BB4FF400510160201D03F0C3B90168CE
:1028700041F48041016070473860FEF7EBB83118D1
:10288000EA7895F8240041EA82565047642322688A
:10289000C2EBC202C2F34C425A43704740F2FF10EF
:1028A00001F0DEBFC4F89000FEF7D4B821F408515F
:1028B000396002217964B9F5807F7047204601F0C4
:1028C00041BB8DF8060049F2C140ADF804007047E5
:1028D000E06257F80C0C00F44079B9F5807F70473E
:1028E0002046314601F002BB0A6822F480720A6079
:1028F0008A6822F001028A608A6822F040028A60B7
:1029000020227047304601F055BD21F488513960CE
:1029100001217964B9F5807F70470446C0680128B9
:102920007047016841F001010160204670470120B5
:1029300000F0C2BD2A6A6969324342EA0060084376
:102940007047002194F8940001F0F4BE2DE9FC4199
:102950001D4614460E46074612A3012000210122FF
:102960004FF0010802F00EFF11A301200021012207
:10297000CDE9004502F006FFC148C06A8047C34860
:10298000394632464680C248FDF723FCBB48002149
:10299000C0F80480457004700120BDE8FC4103F0DC
:1029A0004DB800BF4F6E5278446F6E650A0D00003F
:1029B0005273736956616C75653D25642064426D80
:1029C0002C20536E7256616C75653D25640A0D00AE
:1029D00080B507A3FFF786FDA948C06A8047A748CE
:1029E0000321416001200021BDE8804003F026B8AA
:1029F0004F6E52784572726F720A0D0080B507A350
:102A0000FFF770FD9E48C06A80479C4802214160E4
:102A100001200021BDE8804003F010B84F6E5278CD
:102A200054696D656F75740A0D00000080B507A3C9
:102A3000FFF758FD9248C06A8047904804214160E2
:102A400001200021BDE8804002F0F8BF4F6E5478AD
:102A5000446F6E650A0D000080B507A3FFF742FDC5
:102A60008748C06A804785480521416001200021D0
:102A7000BDE8804002F0E2BF4F6E547854696D6546
:102A80006F75740A0D00000080B5002001F04EFF44
:102A9000012001F04BFF79480830BDE8804003F089
:102AA00073B800BF704780B5FFF752F900200121CD
:102AB000BDE88040FEF78CB880B5FFF749F90448BF
:102AC000012101600120BDE88040FEF75FB800BF32
:102AD000880400587047FEF737BF80B5FEF734FF13
:102AE000BDE8804003F07CBA70470000F8B5634D44
:102AF00068680138042800F29780DFE800F02503B9
:102B000003383F00614C2078002800F08080604846
:102B10006049042201606188D3B2994203D9161F2B
:102B20000132C654F8E75C4BFFF7DCFC5448C1683F
:102B3000866AC76D53488847B8473230FDF748FE6C
:102B4000A1785348B0476DE0504E31787088F1B1AC
:102B5000002867D04E4C5449206888422CD0206809
:102B60004C49884251D00120504B307050E04448CD
:102B7000C168446B4348884748A305E04048C168A2
:102B8000446B40488847404BFFF7ACFC47E00028C7
:102B900048D03F4F3F493B4C3868884245D00120E0
:102BA000424B002101223070012002F0EBFD344A3B
:102BB0002046D168546B31E005F1080003F01AF8A3
:102BC000012001F0A5FE002001F0B0FE31480421F3
:102BD00020607088CAB2904203D90B1F0131A35400
:102BE000F8E733A3FFF77EFC2B4BFFF77BFC244871
:102BF000C168846AC76D23488847B8473230FDF7FB
:102C0000E7FDB1782248A0470CE0002030701E4B51
:102C1000FFF768FC1A48C168446B1A4888474FF4AC
:102C2000FA60A04700206860F8BD05F1080002F0D6
:102C3000E1FF002001F06CFE012001F077FE1A4850
:102C4000042138607088CAB2904203D90B1F013149
:102C5000BB54F8E719A3FFF745FC094A2046D168A1
:102C6000976AD46D8847A0473230FDF7B1FDB1783F
:102C70000748B84716A3FFF735FCD3E78C000020C0
:102C8000AC61000800A1BC33EC6200080000002029
:102C90000803002050494E470F6300085278207304
:102CA000746172740A0D0000504F4E47FD620008B7
:102CB0002E2E2E50494E470A0D000000536C6176AF
:102CC00065202054782073746172740A0D0000002E
:102CD0002E2E2E504F4E470A0D000000032811D80B
:102CE00070B5044608A00C4D0C4E0821FFF70BFCF4
:102CF0000BA01021FFF707FC0DA02021FFF703FC1C
:102D0000BDE8704000207047000000000100000096
:102D1000010000000100000000080048490A000806
:102D200000000000010000000100000000000000A1
:102D30000000000000000000010000000100000091
:102D4000002070470A20704770B586B000240594B3
:102D5000FFF70CFB0320144ECDE903400120114C7A
:102D600002901020019001AD20462946B047202056
:102D7000294601902046B047082029460190204668
:102D8000B0470A4D204620210022A84720461021A6
:102D90000022A847204608210022A847002006B0AC
:102DA00070BD00BF00080048C9080008490A0008B3
:102DB000002070470120704770B53C21214A01EA8C
:102DC00090001E4908581E49FFF7E0FC1E49B0FB61
:102DD000F1F4FDF7EFFEB0F5007F09D11D490020A9
:102DE00003280FD031F8102094420DD90130F7E7B5
:102DF00016490020032805D031F81020944203D949
:102E00000130F7E7002502E0114951F82050124E39
:102E1000306820F007002843FFF7E8FB04463068DD
:102E200000F00700A84204BF002070BDFDF712FEAD
:102E3000001B032824BF032070BDF0E76C6100086D
:102E4000080100585060000840420F003C60000834
:102E50004460000836600008004000580148FEF752
:102E600031BC00BFCC0500200928014698BF0921CC
:102E7000CAB20A23B2FBF3F202EB8203A1EB4303D3
:102E8000591A084440EA0210C0B270472DE9F041D7
:102E9000114F80463868400619D43868002501244F
:102EA00040F080003860FDF7D5FD06463868E14304
:102EB00041EA9010C0070BD1FDF7CCFD801BB0F5A7
:102EC0007A7FF3D903250024C8F83050EEE70025B7
:102ED0002846BDE8F08100BF0C280040B0B5114D78
:102EE000044655F80C0C20F0800045F80C0C2868BE
:102EF000800605D4FEF70EFD60B103202063B0BD4F
:102F0000286820F020002860FEF704FD20B103208F
:102F1000206302E00020B0BD0020296841F02001BC
:102F20002960B0BD182800400120704760B1074AF1
:102F30000021B02907D0535808318342F9D95018DD
:102F400010F8040C7047FEE71F207047BC600008B3
:102F500080B501F0ABF8043803288EBF002002A131
:102F600051F8200080BD00BF0200000001000000F9
:102F7000000000000300000080B501F0EDF8033010
:102F800080BD00007CB5E84EE84900253446C1E923
:102F900002550D7101C4174801F03EF9002000F000
:102FA000B1FA01F0FFFA0020002101F089F90120B7
:102FB0000021042201F012FCFFF7FFFA00F080FE6E
:102FC0000D4B20464FF0FF310022009502F04AFDE4
:102FD000009506F12005094B4FF0FF3100222846ED
:102FE00002F040FD204602F005FE2846BDE87C4088
:102FF00002F000BE51320008753200085D32000850
:10300000BCB5634CD4F89000411E072921D9102883
:103010006ED020286ED0402800F08180802800F0FB
:103020008880B0F5807F00F08F80B0F5007F40F0A1
:10303000758001F03BF8042840F092809348554C8D
:10304000FFF70FFCFFF771FB2068002866D040688F
:1030500099E0DFE801F0040F63496363634B8B4839
:103060004C4CFFF7FEFBFFF760FB2068002855D0B3
:10307000006888E08548474D4FF48051016005F1B4
:10308000200002F0B7FD207980B9FFF74EFB40F633
:103090000210002101F006FC40F6441001F0F4F8A3
:1030A00040F0020140F6441001F0FCFB46480DF1EF
:1030B0000701FF2201F038F804F1500000F0FAFF98
:1030C000286858B385684DB3206D9DF80710012816
:1030D00007BF94F95D3094F95C2094F9583094F965
:1030E00055203948A847BCBD34A312E030A310E0F6
:1030F0002CA30EE0274D05F1200002F07BFD207986
:1031000008B9FFF712FB286840B1C06830B18047AA
:1031100021A302200021012202F034FBBCBD207952
:1031200008B9FFF702FB1B4800680028F6D00069C9
:1031300029E0FFF7FAFA174800680028EED0816905
:103140000029EBD0002009E0FFF7EFFA11480068F2
:103150000028E3D081690029E0D001208847BCBD68
:1031600000F0A4FF0528D9D148480A4C4FF48051FB
:10317000016004F1200002F03DFDFFF7D6FA20685F
:103180000028CBD0C0680028C8D08047BCBD00BF95
:103190004804002030000020484452204B4F0D0AC4
:1031A00000000000484452204F4B0D0A0000000070
:1031B00053594E43204F4B0D0A00000050524520FA
:1031C0004F4B0D0A00000000480300202DE9F0419C
:1031D0008AB01C4615468846074600F07AFD002056
:1031E000002600F069F9384601F0ECF9012041466B
:1031F0004FF416720023CDE90266CDE90466CDE9ED
:103200000666CDE908600320CDE90080002000F0CB
:1032100095F9002000F050F8FFF7AEFEFDF7D8FA60
:1032200002F03AFC0646304602F040FC0746A04257
:1032300003D200F0C5FFA842F5DD0025A74228BF54
:10324000012500F046FD28460AB0BDE8F0810000E7
:10325000B949C1F89000FFF7D3BE00BF0B484FF447
:10326000805101608848006810B1C06800B1004713
:10327000704700BF05484FF4005101608248006864
:1032800010B1406800B10047704700BF28040048F3
:1032900080B5FFF74CFB00200021FFF7D0F9BDE817
:1032A000804000F05BBF00F0EFBF00F0F9BF80B5D9
:1032B00000F086FF80BD0000B0B50446FFF77DF941
:1032C0002CB17148FFF786FA284602F05DFC6D4884
:1032D0004FF48051984C0160FFF733FB21796FF078
:1032E0007F40E268002908BF9001BDE8B04001F0CE
:1032F00099B900BFB0B50446FFF75FF92CB1624839
:10330000FFF768FA284602F03FFC8B4CFFF719FBE9
:1033100021796FF07F40E268002908BF9001BDE885
:10332000B04001F091B900BF3000002048040020F7
:103330002DE9F04F89B08A46064640F2012040F25E
:103340000121FFF77CF94F484FF40051DFF8008B63
:103350000160012198F8940001F0ECF9D8F8000020
:10336000032800F28180DFE800F002050A1688F8E1
:103370002CA001E088F844A008F1140005E0022127
:10338000404640F8141F80F824A001F08BF8304626
:103390005146002266E0EB4623215846FCF732FFF7
:1033A0000020514632465B4639B1177803F8010BCD
:1033B0000139FF4302F8017BF6E74FEACA07002014
:1033C00007210022974216D0C2F3C70421EA020364
:1033D0000132345D24FA03F321EA020403F001030D
:1033E0005840C3B2A340C2F3C7041BF804502B4398
:1033F0000BF80430E6E7C10146460AF1010941EA4B
:103400008011C0B2B0FA80F0400941EA40100BF8D8
:103410000A00022046F8140F304686F8249001F086
:1034200041F8746EE74EF1200021B047F0200021F2
:10343000B047E121642C08BF7021F320B04704217C
:10344000642C08BF1D21F220B0474FEA5A11F42026
:10345000B047B81CC1B2F520B0475FFA89F15846B1
:103460006FF07F4200F022FF0748D8F80810041DD3
:10347000204602F071FB204602F086FB09B0BDE851
:10348000F08F00BF180400483000002001F09AB807
:10349000D54A012802D102F1440005E0906A0128D2
:1034A00018BF704702F12C000170C348017002F18F
:1034B000140000F0F7BF00BFB0B5CB4C012820606E
:1034C0000AD0032803D0042815D1002000E00220F0
:1034D000BDE8B04001F04CB8012001F049F8207C73
:1034E000617C81420CD06074002818BF0120BDE8C7
:1034F000B04000F007B80020002501F039F86574ED
:10350000B0BD00BF10B50446B74844740474FFF75B
:103510000EFA14214FF4E860002C18BF342101F09A
:10352000C1F9242140F24170002C18BF4421BDE8AC
:10353000104001F0B7B900BF480400202DE9F04F5A
:1035400085B01446DDE911820D46DFF804B91799FC
:103550001F46994BDDF84090DDF83CA0B8F1000F14
:103560008BF8041008BF4FF0FF321A70002918BF03
:103570004FF0000900286AD0012800F0B380042829
:1035800040F017810120984601F0C8F809204FF457
:10359000487100275E46CBF870002846CBE91A41F7
:1035A00046F8647FFFF7C2FC5D4645F8147F85F856
:1035B00060001020C5E90477AF6028734FEACA00A5
:1035C000A8800120C5E9070798F8000028760420A4
:1035D000FFF772FFFFF796F9284600F063FF42F20B
:1035E000B270CDF80E70ADF81270ADF80C0003A8F3
:1035F00001F0B6F8FFF752F9714E40F6B800B04747
:10360000704D00F0EF0140F6B800A84740F6B90051
:103610000421A84740F69B00B04700F0E30000F10A
:10362000080140F69B00A84740F2D160B04740F047
:10363000180140F2D160A84740F2AC60B04700F0FA
:103640008F0000F1500140F2AC60A84743E0002039
:10365000002701F063F80B205E46CBF86840CBF8FA
:103660007000284646F8647FFFF760FC5D461399BA
:1036700045F8147F85F8600088F00100C5E9047002
:10368000182028730420A8604FEACA00A8800120EF
:1036900000294FF0010118BFF221C5E90710464883
:1036A0000078287600F015FB3068002818BF01204C
:1036B000FFF702FFFFF726F9284600F0F3FEC120CE
:1036C000CDF807708DF80B70FFF7FBF801A801F03B
:1036D00047F8FFF7E3F84FF4FA5009FB00F0B0FBAE
:1036E000F4F064E000204FF0000B01F017F83349CC
:1036F000A54E012085F00103BAF10C0F51F82510F9
:1037000046F8640F776246F8248CC6E907415146B3
:1037100098BF0C21621F022A28BF514626F8281C98
:1037200084F00C02139946F81C1C169946F8181CD4
:10373000FB49097806F8201CA4F10B013446022944
:1037400038BF4FF0010BB5FA85F144F8500D1A431C
:103750004909B2FA82F201EA0B01DFF8F4B6520924
:10376000114386F8281000F0B4FA3068002818BF1A
:103770000120FFF7A1FEFFF7C5F8204600F092FEFA
:103780005FFA89F000F0F6FD56F8180C441E40F27E
:10379000367018BF012400F077FD00F0FB0040EA0E
:1037A000840140F2367001F07DF84FF6FF70CBF8DF
:1037B0000C0005B0BDE8F08F14000020B0600008D8
:1037C00089420008A5480008B0B50546D3480C4614
:1037D000002190F8940000F0ADFF28462146BDE896
:1037E000B04000F04FBF00BF480400202DE9FE4369
:1037F0000D46002A1146C94C1E4618BF012100275C
:10380000002A2171CDE9007718BF3E46012812D069
:10381000002840F0B580E86870B3286960B3287E5E
:10382000082829D800216A46884228D0EB695B5CC9
:1038300053540131F8E7B5F85000E8B1686D01283C
:103840000CBF2F6AFF27E86B002818BF012000F08B
:1038500065FFF0B200F08EFD0120E96C05F1400338
:1038600004F1800660660DCB0DC669B102290DD04A
:10387000012913D101200FE04FF0FF3780E0E86A03
:10388000C8B34FF0FF0938E0002005E0A0F10B01BC
:103890000020022938BF012084F88C000120D5E9DE
:1038A000171244F8140FB5F8500084F83070C4E9CA
:1038B0000D122085686DE06200F00BFAFFF737F813
:1038C00004F1500000F076FD204600F0EBFDA06B07
:1038D000451E40F2367018BF012500F0D5FC00F0FF
:1038E000FB0040EA850140F2367000F0DBFF4FF646
:1038F000FF70002742E0D5F820902868002818BF04
:10390000012000F00BFFD5E90110EA680027A0466E
:1039100048F8647FA2662167FFF708FB44F8147F2C
:10392000E96A84F86000686984F81890A060A86A61
:10393000C4E90401286BA96BC4E90701288AC00007
:10394000A080287EC000207300F0C3F90020FFF79C
:10395000B3FD404600F02EFD204600F0A3FD684672
:1039600000F0FEFEA88C00F07BFFA88E00F0C2FCE9
:103970004FF4FA50E9687043B0FBF1F044F8080CDA
:103980003846BDE8FE8300BF480400202DE9FE4F05
:10399000149FDDF84080DDE90EA9DDF830B00E4659
:1039A000054688B1012D53D0032D40F098800320A7
:1039B000FFF782FDC148022140F8641F1621C0E9CB
:1039C00005B100F0F7FC8AE00096BC4E0B201446CF
:1039D0003067C6F868B018464FF0000B374647F816
:1039E00064BFFFF7A3FA46F814BF012186F8600010
:1039F0000120B465B8F1000F18BFF221C6E9071025
:103A000089F00100C6E904B0182030730420B060CA
:103A10004FEACA00B08000F05CF93868002818BF8F
:103A20000120FFF749FD384600F0C4FC3046009EF7
:103A300000F038FDC120CDF807B08DF80BB0149F11
:103A4000FEF73FFF01A800F08BFEFEF727FF46E0E0
:103A500000969A4E01201399EA4C0D9ABAF10C0F78
:103A600046F8140F54F82340C6E90D812C497267BB
:103A7000C6F82C90ABF10502C6E91BB434460978B0
:103A800086F83010514698BF0C21022A28BF5146B3
:103A900031850022ABF10B010229B3FA83F138BF63
:103AA000012283F0010344F8500F490911408BF0C3
:103AB0000C021A43B2FA82F25209114386F87810C6
:103AC00000F007F92068002818BF0120FFF7F4FC78
:103AD000204600F06FFC3046009E00F0E3FCDC4C1A
:103AE00085F00100D4F8841081F0060150EA010548
:103AF00040F6890018BF012500F0C6FB00F0FB006E
:103B000040EA850140F6890000F0CCFE304600F026
:103B100075FD84F89400A760BDE8FE8F480400207E
:103B200014000020B0B514460D4600F04BFD2846A9
:103B300000F064FD012100F0FDFD4FF47A70444374
:103B400000F03EFE05482146051D284602F004F817
:103B50002846BDE8B04002F017B800BF3000002092
:103B60002DE9FE4F0E4600219A4615460228CDE962
:103B7000001117D001281ED0002840F09380B068B3
:103B8000A8B1D6F81090B9F1000F10D0347D082CF0
:103B90000DD800216A468C4250D0B3695B5C535407
:103BA0000131F8E7B06810B1B0F57A7F38D94FF03D
:103BB000FF30BDE8FE8FA64F06F1300401201ECC79
:103BC000002C47F8140F07F16C0CACE80E00B6F8A7
:103BD00040103985716CF962B16C7963F16C3E46C5
:103BE000B96318BF012487F8784046F8500F00F0F9
:103BF00070F8FEF79CFEFEF785FE384600F052FC9A
:103C00003C6F40F6890000F03FFB062C0CBF00F033
:103C1000FB0140F0040140F6890000F043FE41E062
:103C200002200224FFF748FC8948162140F8644F1F
:103C30008161316D416100F0BDFB33E0844F4FF095
:103C4000000BB866D6E90010B84648F864BF39677B
:103C5000FFF76CF947F814BFD6E90812F36A87F842
:103C60006000F068C7E904B1C7E90723B865E00060
:103C700038730420B8604FEAC900B88000F029F812
:103C80000020FFF719FC404600F094FB384600F096
:103C900009FC684600F064FDB08B00F0E1FD308D5A
:103CA00000F028FB284600F0A9FC694981F894003F
:103CB0000020C1F808A0BDE8FE8F00BF4804002026
:103CC00080B5042000F0FCFC0220BDE88040FCF739
:103CD0007FBD002000F00EBD80B54FF4C0704FF4E2
:103CE000C071FEF7ACFCBDE8804000F0F7BA000000
:103CF000F0B50DF1140C089E01289CE8901010D02E
:103D0000002860D10CEB0400002E18BF02302021E7
:103D1000002F18BF182101EBC0004FF47A714843FF
:103D200053E019B9A2F10B00022804D300200129A5
:103D300008BF0C2A00D101201425002F18BF002530
:103D4000A5EB8205002E6FF0070618BF1035072A75
:103D500005EBCC0528BF08359700002818BF06EBF7
:103D600082070C26072A38BF97003846002DC8BFA7
:103D7000284401380C250C2C90FBF7F088BF264610
:103D8000571F022F28BF2646072A38BF0E25AC1919
:103D90000433023A00FB03408000013090404FF4AE
:103DA0007A725043174A52F8211000220A290CD87F
:103DB000DFE801F006101316191B1D0B1F2225004A
:103DC00041F6846201E00122002010440138B0FB7A
:103DD000F2F0F0BD43F60952F7E747F61222F4E796
:103DE0004FF22442F1E70A4AEFE7084AEDE7064AB4
:103DF000EBE742F6B102E8E745F26112E5E74AF285
:103E0000C322E2E7B060000820A1070090D00300C1
:103E100048E8010080B500F0F1FB012100F08AFCC8
:103E2000BDE8804000F0CCBC80B50948012190F885
:103E3000940000F07FFC4FF4D7602D2100F032FD9C
:103E400000F0C4FC0348BDE8804000F0A7BC00BF00
:103E500048040020FFFF0F0000F024BD00F02EBD3D
:103E600010B50446FEF7A4FF012818BF10BD40F6A8
:103E7000231000F009FA00F0F90040EA040140F6CE
:103E80002310BDE8104000F00DBD000000210D4AD8
:103E9000B0F5803F38BF012138BF00040901B0F1FF
:103EA000807F3CBF08310002B0F1805F38BF043131
:103EB00038BF0001000F81F01F01105C081AC0B26A
:103EC000704700BFCC620008074940F441700A689F
:103ED00022F040020A6008604FF4B8504860086859
:103EE00040F040000860704700000158B8B5484CE9
:103EF000FEF7CCFC284B0092009A3AB1009A013AA6
:103F000000921A689207F7D5002201E001220261AF
:103F1000FF251D7164252468C4EBC404C4F34C441C
:103F20006C430094009C34B1009C013C00941C68DC
:103F3000E407F7D001E001220261586808701046DA
:103F4000B8BD00BF18B5324CFEF7A0FC124B009272
:103F5000009A3AB1009A013A00921A689207F7D58E
:103F6000002201E001220261197121686424C1EB81
:103F7000C101C1F34C4161430091009931B10099F5
:103F8000013900911968C907F7D001E001220261E7
:103F90005868104618BD00BF08000158B0B5044667
:103FA000007901280BD1084D286820F400402860D2
:103FB0000120FCF70DFC286840F4004028602046F2
:103FC000BDE8B04000F006B890040058E848FDF79E
:103FD0003FBD00BF81B00E496422096801EB410179
:103FE000C1F34B41514300910A490A68009B53B108
:103FF000009B9208013B00930B6802EA5302D20730
:10400000F3D1002002E002210161012001B07047DC
:104010001800002014040058E0B500F07F000DF1F6
:104020000702892101238DF80700E148FDF7CEFC46
:104030008CBD00BFE0B51849884204D3E1208DF85B
:104040000600E9201EE01549884204D3D7208DF8E8
:104050000600DB2016E01249884204D3C1208DF807
:104060000600C5200EE00F49884204D375208DF864
:104070000600812006E00C49884205D36B208DF8AC
:1040800006006F208DF80700C9480DF1060298213F
:104090000223FDF79BFC8CBD01E9A43581F8A93210
:1040A0008144E52D010B6B1B41FC5419A148C068EC
:1040B000704700BF1CB50446BD480DF10502142130
:1040C0000323FDF759FCED4801690129216010D057
:1040D00009BB9DF805009DF806109DF8072020718A
:1040E0000020A06048424008A07150424008607122
:1040F0001CBD40689DF8071020619DF805004042F6
:10410000400820739DF90600023080086073484221
:104110004008A0731CBD20460021142201F0FEFBC4
:104120000F2020601CBD00BF7CB50E460446002059
:104130000DF1070115468DF80700304600F04EF8E6
:104140003278AA4284BF01207CBD9DF80700214639
:1041500000F094F800207CBDFEF7F4BD7CB5002093
:10416000019040F6E20000F08FF8144E044600F093
:10417000FE0140F6E200B04740F6E50000F084F8AA
:10418000054600F07F0140F6E500B0476FF07F4044
:1041900000F048FA01A940F61900042200F080F866
:1041A000002000F0A7FA40F6E2002146B04740F6B2
:1041B000E5002946B04701987CBD00BFA54800082E
:1041C000E0B5EA480DF1070215210123FDF7D4FB04
:1041D0009DF80700404240108CBD00BFBCB50546AD
:1041E000EC480C460DF1060213210223FDF7C4FB37
:1041F000E7480169012907D14069012804D140F24B
:10420000027000F041F801E09DF8060028709DF86A
:1042100007002070BCBD00BF10B508B1DC49886044
:104220000220FFF71DFEFEF70DF9D94C002020708B
:10423000002000F05FFAFEF7BDFD01280ED1FEF769
:1042400081FD8101012000F095FA40F61110002156
:1042500000F028FB7F20FFF7DFFE09E040F6111099
:10426000202100F01FFB40F61210202100F01AFB65
:10427000FEF76AFD0120E06010BD00BF13460A464C
:104280000146F048FDF798BCE0B50146ED480DF158
:1042900007020123FDF7BAFC9DF807008CBD00BFA3
:1042A00013460A460146E748FDF7B0BC10B5144670
:1042B00000F072F92046BDE8104000F06FBA00002F
:1042C000E0B58DF80600EE488DF807100DF10602F6
:1042D0008F210223FDF77AFB8CBD00BF80B5E84833
:1042E000C52100220023FDF771FBE4480721C160CE
:1042F00080BD00BFE0B540BAADF80600EF480069E8
:1043000000B18CBD0DF1060140F2BE60022200F04A
:10431000D5FA8CBDE0B540BAADF80600F4480069A6
:1043200000B18CBD0DF1060140F2BC60022200F02C
:10433000C5FA8CBD6C000020E0B58DF80100000AC4
:104340008DF807301B0A8DF80520120A8DF803102E
:10435000090A8DF80000EF488DF806308DF804202A
:104360008DF802106A4608210823FDF72FFB8CBD4B
:1043700008060020E0B58DF80700ED480DF10702B2
:10438000A021FEF722F99DF8070040280ED341082E
:104390000020CAB2202A02D301309108F9E700EBCD
:1043A000C100C1B240F2067000F07CFA8CBD00BFC3
:1043B000080600201CB5D84904460020CDE90000BD
:1043C00020680969814202D000F0D2F821680329EF
:1043D00052D8DFE801F002243339221D002307CA36
:1043E0008DF80320227C8DF80420254AB2FBF0F0E2
:1043F000020A8DF80200000C8DF801207E4A8DF82B
:1044000000004806C909FBF7B3FE010A8DF8070052
:10441000000C08238DF806108DF8050027E004F144
:104420001C02042307CA8DF801108DF802208DF8B4
:10443000000094F828008DF8030018E0D4E9050185
:1044400004238DF8031007E0E168606805238DF808
:104450000310217C8DF804100949B1FBF0F0010A2A
:104460008DF80200000C8DF801108DF80000DA487C
:104470006A468B21FDF7AAFA1CBD00BF6C00002024
:104480000000093DE0B58DF80400D3488DF80730F1
:104490008DF805108DF8062001AA95210423FDF75B
:1044A00095FA8CBDBFB5C54D044600208DF80C00B3
:1044B000CDE9010020682969814202D000F058F856
:1044C0002168032951D8DFE801F002112202E069D6
:1044D000F22822D0F12829D14FF6FF70FFF71AFFFA
:1044E00048F20500FFF706FF02201FE0E06A0623FE
:1044F00068618DF8060094F830008DF80700D4E963
:104500000D018DF80800208D8DF8091024E094F835
:10451000240001238DF8040022E041F60F50FFF73C
:10452000F9FE41F22100FFF7E5FE06208DF80B00B1
:10453000A06809238DF80600207B8DF80700D4E9D8
:1045400004018DF80800207E8DF809108DF80A000E
:10455000206A8DF80C00A08800BA000CADF80400A9
:10456000D94801AA8C21FDF731FABFBD0806002009
:10457000E0B5C8490190086120B940F2AC60002163
:1045800000F090F9D04801AA8A21FEF71EF88CBDF0
:104590006C000020080600200A460146002000F0BA
:1045A0007BB90000E0B5FEF703FC0138962101233A
:1045B000B0FA80F040090190C34801AAFDF706FA5D
:1045C0008CBD00BFBCB5B34D0446287820B9204649
:1045D000FFF730FD01202870074A6006E10900233B
:1045E000FBF7C6FD00BA862104230190B64801AA54
:1045F000FDF7ECF9BCBD00BF0048E801B0B50446CA
:10460000FEF79EFB022805D0012520B90F2CC8BF5C
:10461000022500E0022528462146022200F0DEF8AD
:104620002846B0BDE0B59B490522FEF70CF80DF118
:1046300005028DF80500A4488DF806108221FDF7CB
:10464000C5F98CBD080600201CB50446914805211B
:10465000C16040F6AC00972100F024F9200A0DF16A
:104660000502822103238DF807408DF80600200CF7
:104670008DF805009448FDF7A9F91CBD6C000020D9
:10468000080600201CB50A0A8DF80710090C8DF8E1
:104690000400062306248DF80510010A000C8DF88D
:1046A00006200DF102028DF8020087488DF80310F4
:1046B0009421FDF78BF97748C4601CBD6C00002085
:1046C000BCB5044600200025FEF708FB0220FFF7DA
:1046D000C7FB04F007000DF10702842101238DF8C8
:1046E00007007948FDF772F96A48C560BCBD00BF94
:1046F0006C000020E0B50190734801AA8021FDF70D
:1047000064FF019902200029624908BF0120C860A6
:104710008CBD00BF080600206C000020E0B58DF8BD
:10472000070069480DF107029F21FDF74EFF8CBD80
:1047300008060020012908D110B50446012807D138
:104740000420FFF78DFB022003E00120FEF7C6BA2C
:104750000120022C08BF0320BDE81040FEF7BEBABE
:1047600080B501464FF4D860082200F0A7F8002079
:1047700080BD0000E0B500F007008DF807100423AD
:104780008DF80400080A8DF80600080C97218DF8B2
:1047900005004D4801AAFDF719F98CBDE0B53D496A
:1047A0000422FDF750FF0DF105028DF80500464883
:1047B0008DF806108321FDF709F98CBD6C000020EF
:1047C0004148D12100220023FDF700B93E48D22103
:1047D00000220023FDF7FAB808060020BCB51446F5
:1047E0000D46012812D104200F2D08BF06200021FC
:1047F00001220123FFF746FE15F1110FD8BF6FF01C
:1048000010050E2DA8BF0E25182118E040F6D8007F
:10481000FFF73AFD40F01E0140F6D80000F042F8E4
:104820000420072100220123FFF72CFE15F1090FB8
:10483000D8BF6FF00805162DA8BF1625382140F601
:10484000E70000F02FF820480DF106028E21022328
:104850008DF807408DF80650FDF7B8F8BCBD00BFD5
:1048600010B504460B48006900B110BD4FF4D76085
:10487000FFF70AFDC4F3002100F0FE0001444FF4ED
:10488000D76000F00FF8E1B240F2B960BDE8104027
:1048900000F008B86C00002013460A4601460A489A
:1048A000FDF7F6B9E0B5034607488DF807100DF19E
:1048B000070219460123FDF715FA8CBD13460A4677
:1048C00001460148FDF70EBA0806002070470000B7
:1048D00070B586B004460025022002260595FDF736
:1048E00021FD0120CDE903560290174830F81450FD
:1048F000144850F82440019501A92046FBF7E4FF35
:10490000204629460022FCF79FF8002006B070BD23
:1049100080B50C4951F820200B4931F81010104691
:104920000022FCF791F8002080BD00BF80B505494A
:1049300051F82020044931F810101046FCF77CF89B
:10494000002080BD30620008286200082DE9F04791
:104950008AB000264FF0010933A302200021002273
:10496000CDE90096029600F00DFF364C364B4FF025
:10497000FF310022009604F10805284601F072F884
:104980002846C82101F0E8F8284601F0FDF82F4834
:10499000334D3049304A314B44F8240F2C48D5F878
:1049A0000C80D5E906A7C4E903212968C4E90130D0
:1049B0002046884740F6B83008240E210022002304
:1049C00008900720CDE9000902A8CDE90566079601
:1049D00080E850020120B84705200021072201236A
:1049E000CDE90869CDE90064CDE90469CDE9066641
:1049F000CDE902060120D0476A6D01204021904791
:104A00001848C0470120FFF763FF0020FFF760FF51
:104A1000696B4FF4FA608847134A012000210AB0FD
:104A2000BDE8F04700F086BF4150505F56455253F5
:104A3000494F4E3D205625582E25582E25580D0AF3
:104A4000000000008C000020892A00082D2A0008A0
:104A50004D290008D1290008FD290008592A00081D
:104A6000AC61000800A1BC33ED2A0008FBF7F4BFDD
:104A700010B51944029B0024C0E90014054C1A44E7
:104A800013048280A34204DBA2F57A720131828092
:104A9000016010BD0100E70370B586B00E49044601
:104AA0000020CDE9040004A84E68D1E90351043088
:104AB00088470490A8470546B0470146DDE9043021
:104AC000AAB2009002A8FFF7D3FFDDE90201C4E912
:104AD000000106B070BD00BF6C620008F0B585B083
:104AE0002A4E56F8440C20F4004046F8440C01F0DD
:104AF0002DF8274D00240120CDE90344A8470220CA
:104B0000A8470420A8478020A847032002946C46A9
:104B1000204F019049F6FF70214600904FF09040E1
:104B2000B8471D4D4FF6FF70214600902846B84704
:104B300005F580602146B84705F5C0502146B847C5
:104B4000306820F001003060306820F002003060F2
:104B5000306820F004003060306820F08000306061
:104B6000FBF796FB00F060FE0C4800F07DFE022093
:104B700000F07EFE00F09EFE0120012100F0A0FE6C
:104B80000120012100F0B2FE05B0F0BD4C0000583C
:104B90003D230008C908000800040048E94F000848
:104BA000B0B59AB008AC4421201DFBF72BFB01A83F
:104BB0001C21FBF727FB1748174900250A5822F04C
:104BC00018020A50012010900A6860F34A220A6015
:104BD000086800F4C0600090B0201395CDE9115032
:104BE00081200B902420089000982046FCF778FA4A
:104BF00000B1FEE74F200795CDE903550595022149
:104C0000CDE9010501A8FCF7B3F800B1FEE71AB041
:104C1000B0BD00BF90FCFFFF0004005870470000CB
:104C20005F48FCF725BD00BF5D480221FCF7FCBCD6
:104C30005B480021FCF7F8BC59480121FCF7F4BCA3
:104C4000024657480221FCF7F3BC00BF0246544815
:104C50000021FCF7EDBC00BF024651480121FCF7E2
:104C6000E7BC00BF4FF47A71A0FB0101800A40EA63
:104C70008150704780B5FDF73AFC80BD80B5FDF7E7
:104C800036FC2C490A680B68D31A834228BF80BDC2
:104C900000BFF8E70320704770B5044625484FF47D
:104CA0007A71056840F2FF30A8434843860AFFF74F
:104CB000BBFFE9432680890A41EA805070BD00BFEE
:104CC0002F484068704700BF1A482D49006849685E
:104CD000C043401A704700BF29480078012811BF1F
:104CE000002014480068C043704700BF70B5244DD1
:104CF0002878B0B92A4C4FF0FF366663FDF768FBA1
:104D000000F040F8FDF76DFC20466663FCF796FC6A
:104D10000020FFF795FF0748012100682970C04374
:104D20006860002070BD00BF024815490068C0439C
:104D30004860704708280040B0B58CB001AD04460B
:104D400028212846FBF75EFA00F01CF84FF480712A
:104D5000002001220B914FF000510890CDE906018F
:104D60000748294640682044C04302900C48FCF79D
:104D700075FD08B1FBF764FB00200CB0B0BD00BFAF
:104D80002000002010B50548054C01210160FDF709
:104D900028FC4FF0FF306063002010BD5C2800400D
:104DA000CC050020F0B5EFF31082EFF3108372B65C
:104DB0006A4B9E8ADC8AA6420CD1C4F50076B5B255
:104DC000854216D8844214D9002501261C80DD8234
:104DD0005E6010E00CD2C4F50077BDB285421BD8EE
:104DE000864219D900251C800124DD825C6001E027
:104DF000361B25463446A4B2844207D90D80D98A91
:104E000008446FF35F20D882002001E04FF6FF7066
:104E100082F3108800B2F0BD25463C46EBE700BFA8
:104E2000EFF31080EFF3108172B64C494A8B0132D8
:104E30004A8380F310887047B0B5484DEFF3108473
:104E4000EFF3108072B6688B10B184F3108809E01C
:104E5000FFF7E6FFE88AA98A814205D100F072F8DF
:104E600084F310880020B0BD6A686AB1012A13D1AA
:104E70002B8802226A6000225B1A2A802B831B0483
:104E80000AD1AA826A6000E00A461146904294BFA5
:104E9000C2F50070801A2883284884F310884418CB
:104EA00000F0DEFC2648298BC2682046BDE8B040F1
:104EB000104700BFB0B52949EFF31084EFF310801D
:104EC00072B64A68022A03D1002200234A6004E035
:104ED000888A0B8B03446FF35F23C88A8B828342DB
:104EE00011D04D8B012D0ED1AAB1012A1AD10D88F6
:104EF00002224A600022EB1A0A800B831B0411D1A4
:104F00008A824A6008E000F0A7FC84F31088BDE8BC
:104F1000B04000F017B81A46904294BFC2F5007036
:104F2000801A088384F31088044A888A098B104405
:104F3000034AD268BDE8B040104700BFEC00002033
:104F4000AC620008EFF31080EFF3108172B60349F2
:104F50004A8B013A4A8380F310887047EC020020A4
:104F6000124A116819B101F118028142F9D10029E0
:104F700018BF0121084670470C4A116809B1002387
:104F80000B721060816100F013B800BF10B50749C3
:104F900009680A46896921B10B6804689C42F8D8FF
:104FA00000E000219061816110BD00BF600500201C
:104FB0002DE9F041DFF8A08C0446D8F82000D8F89D
:104FC000187080470546012026682072B84728449B
:104FD000864203D2B8472844206000E02068D8F811
:104FE0000810BDE8F0410847BFB5054602A80C46C9
:104FF000FFF752FDBDF90C00029B0090284600F01F
:1050000037FE2846FBF709F92080BFBDB0B5416ED9
:1050100091B102680C4B0D4D91689268C1F34261E9
:10502000520F5C5C695C9B5CAA5CC900D200B1FB5E
:10503000F4F1B2FBF3F201E001220121A0F86810C3
:10504000A0F86A20B0BD00BFE4620008DC6200087E
:1050500010B5816ACA0706D00268C36A546824F48E
:105060000034234353608A0706D50268036B5468F3
:1050700024F48034234353604A0706D50268436B07
:10508000546824F48024234353600A0706D5026839
:10509000836B546824F4004423435360CA0606D546
:1050A0000268C36B946824F48054234393608A0697
:1050B00006D50268036C946824F40054234393607B
:1050C0004A060FD50268436C546824F480141C43CC
:1050D000B3F5801F546005D1836C546824F4C00478
:1050E00023435360090606D50168C06C4A6822F460
:1050F00000221043486010BDBCB504460020C4F82F
:105100008C00FBF7A7FC054620680168090707D556
:105110006FF07E404FF40011FDF71AFB50B9206884
:105120000068400708D56FF07E404FF48001FDF71E
:105130000FFB08B10320BCBDFDF71CFBC4F88000C9
:10514000E066BCBDC06A0021A0F85E10A0F8561051
:10515000FCF794BEB0B5C46A2068D4F88420D4F8B3
:1051600088508168212A09D111F0800106D00020E1
:10517000A4F85600204600F047F820688068222DE9
:1051800008D110F0400005D00020A4F85E002046B1
:1051900000F022F8D4F88C0040F01000C4F88C0025
:1051A0002046BDE8B040FCF769BE0168C06A0968E6
:1051B000890648BFFDF7A0B80021A0F85610006886
:1051C000816821F080018160016841F04001016047
:1051D0007047C06AFDF796B801689C4B0A6822F4D4
:1051E00090720A608A681A408A60C26E012A03D1EE
:1051F0000A6822F010020A602021C0F888100021FD
:105200000167C166704700BF01680A6822F0C002EA
:105210000A608A6822F400028A602021C0F88410A3
:10522000704710B504460068D4F88810222910D1C0
:10523000B4F86010426A1140A26D22F8021BB4F863
:105240005E100139A4F85E10A265B4F85E1011B1C9
:1052500010BDFDF7C5BAFDF7A8FA02D1FDF7DDF9DB
:1052600001E0FDF7D0FA0020E06610BD2DE9F84F0F
:1052700004460068C669FDF771FA48D17348B4F86E
:10528000687002F0010B01F480784FF0000A81464B
:10529000002F42D016F020003FD02068A16D426A56
:1052A0002A4021F8022BB4F85E20013AA4F85E20CF
:1052B000A165C66971071CD0F20718BFB8F1000FCD
:1052C00001D0FDF7E7F9B20704D5BBF1000F01D01B
:1052D000FDF7F2F9002904D5BBF1000F01D0FDF76D
:1052E000E2F9D4F88C0020B12046FCF7C7FDC4F8E1
:1052F0008CA0FDF73BFACBD1FDF705FA02D1FDF703
:105300008CF901E0FDF77FFAC4F86CA0C0E7816971
:1053100041F008018161BDE8F88FFDF727FAFAD066
:10532000B4F868108842F6D22068816821F0805174
:105330008160EF49FDF705BA10B504460068D4F85E
:10534000881022290DD1B4F86010406A0840A16D80
:10535000FDF752FAA06D0130A065FDF707FA02D003
:1053600010BDFDF73DBA2068FDF71FFA02D1FDF729
:1053700054F901E0FDF747FA0020E06610BD000097
:105380002DE9F84F04460068D0F81CB0FDF7E6F9A7
:1053900046D12E48B4F8687002F0010601F4807816
:1053A0004FF0000A8146002F40D01BF020003DD076
:1053B0002068A16D406A2840FDF71EFAA16D2068A3
:1053C0000131A165D0F81CB05FEA4B711AD05FEAD9
:1053D000CB7218BFB8F1000F01D0FDF75BF95FEA9F
:1053E0008B7202D50EB1FDF767F9002902D50EB117
:1053F000FDF759F9D4F88C0020B12046FCF73EFDAA
:10540000C4F88CA0FDF7B2F9CDD1FDF77CF902D13B
:10541000FDF703F901E0FDF7F6F9C4F86CA0C2E767
:10542000816941F008018161BDE8F88FFDF79EF9BF
:10543000FAD0B4F868108842F6D22068816821F06A
:1054400080518160AB49FDF77CB900BFFEFFFFEFE3
:1054500070B5016804468068674ED4E903230D687F
:105460001843E369354066693043654E1843284365
:10547000624D0860486820F4405010434860A942DB
:10548000A0691CBF226A10438A68324010438860BA
:10549000626AC86A20F00F001043C862594881420E
:1054A00008D0A9420AD05848814210D1574859A67D
:1054B000006807E055480068800802E0534800682B
:1054C000800A534E00F0030056F8206000E01026DA
:1054D0005448A94210D00121B3F5004F1AD1082E2B
:1054E00000F28180DFE806F00546507F497F7F7F2C
:1054F0004E00FBF73FFD42E00121082E00F27380D1
:10550000DFE806F005711C71147171711A00FBF768
:1055100031FD0DE0082E66D8DFE806F00549536539
:105520004C6565655100FBF725FD45E0FBF73CFD4B
:10553000002855D0626A01E04FF400403A4931F842
:1055400012106268B0FBF1F002EB4201884249D3CD
:10555000B0EB023F46D8010E000210EB520041F1C1
:1055600000010023FAF704FE304AA0F54071914291
:1055700034D937E0FBF70AFD01E0FBF715FD78B3FE
:10558000626A01E04FF40040274931F81210B0FB85
:10559000F1F061684A0802EB4000B0FBF1F04FF611
:1055A000F07101401ED0C0F34200084316E0FBF743
:1055B000EDFC01E0FBF7F8FC90B1626A01E04FF40A
:1055C0000040194931F81210B0FBF1F0616800EBAE
:1055D0005100B0FBF1F080B2102803D32168C860FD
:1055E000002100E001210020C4E91C004FF001105F
:1055F000A066084670BD00BFF369FFCF0080004081
:10560000FFF4FF11004400400038014088000058BA
:10561000BC6200080100000004000000020000005D
:10562000080000000024F4003C620008FFFC0F00AA
:1056300070B5A0F85E208165A0F85C20816851B14A
:10564000B1F1805F0BD0B1F5805F0CD1036923B954
:1056500040F2FF130AE003693BB9FF2306E0036948
:105660001BB13F2302E0002300E07F23A0F860305D
:105670000023C0F88C302223C0F888300368456EC0
:105680001C46B5F1005F54F8086F46F0010626602D
:1056900003D1B0F8685095420DD9B1F5805F01D1C2
:1056A0000169E9B11349002201671C46C0F8802056
:1056B0004FF490700FE0B1F5805F01D1016989B1BD
:1056C0000A4900220167C0F88020186840F4807001
:1056D00018604FF08050216808432060002070BDA2
:1056E0000349E0E70049ECE76D52000881530008E8
:1056F00023520008395300082DE9F843DDF82090C3
:1057000004460068984616460F4609F10105C1692E
:105710003940C91BB1FA81F14909B1421CD1002DB0
:10572000F5D0FBF797F9A0EB0802206801684A451D
:1057300015D8B9F1000F12D04907E8D5C16909059C
:10574000E5D54FF4006101620168FCF798FFC4F8E9
:10575000880004F18C0006E00020BDE8F883FCF727
:105760008EFF04F188000021C4F880102021016020
:105770000320BDE8F88300000148FCF781BB00BFAF
:105780001C06002070B586B01C460023ADF8023020
:10579000394B1D7B854202D26FF0040040E018694E
:1057A000084088422AD132B19A6822B10DF1050031
:1057B0000DF1020190471B480AAB4FF4807122465D
:1057C000059300F069FA0546FFF72AFBBDF80200D1
:1057D0006946284480B2FFF7E5FA01301ED0BDF8D3
:1057E0000210BDF80020194B0DF1050049B110F869
:1057F000016B95B2013901325E55F7E76FF0050094
:105800000EE013FA82F0059B4FF48071224600F0FF
:1058100043FAFFF797FBFFF70FFB01E0FCF7D8FE19
:1058200006B070BDAC06002080B5134800211C22D4
:1058300000F074F8054800214FF4007200F06EF893
:10584000034801680348BDE880400847EC00002099
:10585000AC620008B54E00080220002100F046B8F6
:105860000220012100F042B803498860704700BF60
:1058700001490873704700BFEC020020B0B5EFF398
:105880001084EFF3108072B62348016819B10848FC
:10589000D0E9001507E04068002805480CBFD0E9B2
:1058A0000415D0E902158847A84784F31088B0BDD5
:1058B0005462000818480021C0E90011704700BF79
:1058C000EFF31082EFF3108372B629B1012909D1E9
:1058D00011494968084303E00F49496821EA00007B
:1058E0000D49486082F31088704700BFEFF31082C3
:1058F000EFF3108372B629B1012909D1064909686D
:10590000084303E00449096821EA000002490860ED
:1059100082F31088704700BF84000020130408BF82
:10592000704700F8011B013AF8E7FFF7A7BF70477F
:1059300070470000B0B5EFF310851446EFF3108107
:1059400072B6FEF7A3FA3C4941F8204085F310886F
:10595000B0BD00BF2DE9F84FDFF8D8A0404EDFF80A
:10596000D8904FF0010BDAF8048006F10C0400EA3D
:105970000800CAF80400DAF800100840316808424C
:1059800038D0D6E90112114034D12746796808375A
:105990000140FBD03D680D4204BF4FF0FF353D6034
:1059A00005EA0100FEF772FAF0600BFA00F002223D
:1059B0006FF0010325EA000035463860EFF31080F0
:1059C000EFF3108172B6F1680BFA01F1C9432F6849
:1059D0000F402F602BB1013A013306EBC2051035A1
:1059E000F5E780F31088F06859F820008047DAF86E
:1059F0000400C0E71A4D4FF0FF30E860FFF798FF52
:105A0000EFF31084EFF3108072B6DAE90012286821
:105A10000840104205D1D5E90101014208BFFFF756
:105A200084FF84F31088FFF782FFCAF80480BDE882
:105A3000F88F00BF0C000020E004002010B5EFF349
:105A40001082EFF3108372B6054B1C6803EBC101A3
:105A500004431C600B691843086182F3108810BD71
:105A6000CC0000202DE9F041012490B11D4683B106
:105A7000002406461746DDF8188004607648426A1E
:105A800008469047B47234817060C6E90375C6E970
:105A900005842046BDE8F08110B56F48C169846A6D
:105AA00088472146BDE81040084700BFF8B50446C6
:105AB0006948C169D0E90967884705462046B0476B
:105AC000281A3946BDE8F840084700BF2DE9F843D9
:105AD000614EEFF31088EFF3108072B6D6E9044000
